S01100004472756D53656E73652E737265637D
S11300000C9434000C9449000C9449000C9449005D
S11300100C9449000C9449000C9449000C94490038
S11300200C9449000C9449000C9449000C94490028
S11300300C9449000C9449000C9449000C94490018
S11300400C9449000C9449000C9449000C94490008
S11300500C9449000C9449000C9449000C944900F8
S11300600C9449000C94490011241FBECFEFD8E032
S1130070DEBFCDBF11E0A0E0B1E0EAE9F5E002C0E7
S113008005900D92A430B107D9F70E94A1010C94F8
S1130090CB020C940000CF93DF9384B18E6084B9BB
S11300A0C3EBD0E01882A8E8B0E011961C921E922F
S11300B04AE850E0FA011182108220E830E0F901A8
S11300C080818168808321E830E0F9018081896042
S11300D0808320EB30E0F90180818368808321EB09
S11300E030E0F90180818160808380E1888380E150
S11300F090E011969C938E93FA0191838083DF9113
S1130100CF910895ECE7F0E0808185608083EAE791
S1130110F0E08081806C80830895CF92DF92EF922B
S1130120FF920F931F93CF93DF93EC010E9467021A
S11301307C010E9467028C010E946702FC01E016A8
S1130140F10608F44DC0E816F90610F19701A1E88C
S1130150BFE30E940C0296958795929582958F70C5
S113016089279F7089278883BC0177278FEF90E0C8
S11301700E94F8019B012F5F3F4FC801B9010E9403
S1130180E4016983CF01B9010E94E4016A8374C068
S1130190698170E0CC24CA94D12CC6010E94F80174
S11301A06F5F7F4FC7010E94E40168839801A1E853
S11301B0BFE30E940C0296958795929582958F7065
S11301C089279F7089278983BC017727C6010E94EC
S11301D0F8016F5F7F4FCF010E94E4016A834CC036
S11301E00817190740F1698170E0CC24CA94D12C16
S11301F0C6010E94F8016F5F7F4FC7010E94E401AE
S113020068839801A1E8BFE30E940C029695879544
S1130210929582958F7089279F7089278983BC0165
S11302207727C6010E94F8016F5F7F4FCF010E94BC
S1130230E4016A8321C06A8170E08FEF90E00E943C
S1130240F8019B012F5F3F4FC701B9010E94E401F0
S11302506883C801B9010E94E40169839F01A1E890
S1130260BFE30E940C0296958795929582958F70B4
S113027089279F7089278A83DF91CF911F910F91DE
S1130280FF90EF90DF90CF900895FC012081918141
S1130290291748F08281281718F0822F80950AC008
S11302A0892F809507C08281981718F0892F80952F
S11302B001C08095280F2083980F91839281890F24
S11302C082830895FC018081893010F0885001C038
S11302D080E080838181893010F0885001C080E003
S11302E081838281893010F0885001C080E082834C
S11302F00895FC019081913140F48181813128F489
S11303008281813110F481E08383903108F490E19B
S11303109093B3008181813110F090E002C080E1BC
S113032090E090938B0080938A008281813110F059
S113033090E002C080E190E090938900809388006F
S11303400895CF93DF9300D000D0CDB7DEB780E11E
S113035089838A838B8381E08C830E944B000E9473
S113036082002FEF80E792E0215080409040E1F737
S113037000C0000080917800909179000E946C0286
S113038008E710E0F801808191818130924068F0A3
S11303908C81882331F0CE0101960E948D001C824D
S11303A004C0CE0101960E944501CE0101960E942F
S11303B07901CE0101960E9462018FE19EE40197CA
S11303C0F1F700C00000DECFAA1BBB1B51E107C040
S11303D0AA1FBB1FA617B70710F0A61BB70B881FD1
S11303E0991F5A95A9F780959095BC01CD01089560
S11303F097FB072E16F4009407D077FD09D00E94CE
S1130400E40107FC05D03EF4909581959F4F089533
S1130410709561957F4F0895A29FB001B39FC0016D
S1130420A39F700D811D1124911DB29F700D811D1C
S11304301124911D08958F929F92AF92BF92CF92F3
S1130440DF92EF92FF92CF93DF93EC016881798181
S11304508A819B81611571058105910521F464E20E
S113046079ED8BE597E02DE133EF41E050E00E9418
S1130470770249015A019B01AC01A7EAB1E40E9449
S113048096026B017C01ACEEB4EFA50194010E94CD
S1130490A402DC01CB018C0D9D1DAE1DBF1DB7FF59
S11304A003C00197A109B04888839983AA83BB83B9
S11304B09F77DF91CF91FF90EF90DF90CF90BF9027
S11304C0AF909F908F9008950E941B02089580E042
S11304D091E00E941B020895A0E0B0E08093000127
S11304E090930101A0930201B09303010895052E96
S11304F097FB1EF400940E948E0257FD07D00E94C1
S1130500A90207FC03D04EF40C948E02509540953A
S1130510309521953F4F4F4F5F4F089590958095AB
S1130520709561957F4F8F4F9F4F08950E940C02E5
S1130530A59F900DB49F900DA49F800D911D112433
S11305400895B7FF0C9496020E949602821B930BA7
S11305500895A1E21A2EAA1BBB1BFD010DC0AA1F00
S1130560BB1FEE1FFF1FA217B307E407F50720F018
S1130570A21BB30BE40BF50B661F771F881F991F93
S11305801A9469F760957095809590959B01AC01DC
S10D0590BD01CF010895F894FFCFD8
S107059A0100000058
S9030000FC
